:100000000C945C000C946E000C946E000C946E00CA
:100010000C946E000C946E000C946E000C946E00A8
:100020000C946E000C946E000C946E000C946E0098
:100030000C946E000C946E000C946E000C946E0088
:100040000C9487010C946E000C946E000C946E005E
:100050000C946E000C946E000C946E000C946E0068
:100060000C946E000C946E00000000080002010069
:100070000003040700000000000000000000000072
:10008000250028002B0000000000240027002A0083
:10009000040404040404040402020202020203032E
:1000A0000303030301020408102040800102040836
:1000B000102001020408102011241FBECFEFD8E049
:1000C000DEBFCDBF21E0A0E0B1E001C01D92A930AC
:1000D000B207E1F70E94D1010C94BC030C9400001C
:1000E00090E0FC01EC55FF4F249180579F4FFC019D
:1000F0008491882399F090E0880F991FFC01EA57BA
:10010000FF4FA591B491FC01E458FF4F8591949164
:100110008FB7F894EC91E22BEC938FBF089590E0A9
:10012000FC01E859FF4F2491FC01EC55FF4F34913D
:10013000FC01E057FF4FE491EE23C9F0222339F090
:10014000233001F1A8F4213019F1223029F1F0E037
:10015000EE0FFF1FE458FF4FA591B4918FB7F894AD
:10016000EC91611126C030953E233C938FBF0895DA
:100170002730A9F02830C9F0243049F78091800059
:100180008F7D03C0809180008F7780938000DFCFC8
:1001900084B58F7784BDDBCF84B58F7DFBCF809115
:1001A000B0008F778093B000D2CF8091B0008F7D68
:1001B000F9CF3E2BDACF3FB7F894809105019091AB
:1001C0000601A0910701B091080126B5A89B05C0C2
:1001D0002F3F19F00196A11DB11D3FBFBA2FA92FC6
:1001E000982F8827BC01CD01620F711D811D911DC3
:1001F00042E0660F771F881F991F4A95D1F708952F
:100200008F929F92AF92BF92CF92DF92EF92FF9226
:100210004B015C010E94DB006B017C010E94DB0052
:100220006C197D098E099F09683E7340810591050F
:10023000A8F321E0821A9108A108B10888EEC80E3F
:1002400083E0D81EE11CF11C81149104A104B104C7
:1002500029F7FF90EF90DF90CF90BF90AF909F90E5
:100260008F9008959BB19370282F2C7F922B9BB970
:1002700095B19C7F8370892B85B943EB50E0FA01DF
:1002800024918FE990E0FC013491E32FF0E0EE0F30
:10029000FF1FE458FF4FA591B4913C912095232373
:1002A0002C93FA014491FC018491E82FF0E0EE0FC9
:1002B000FF1FE458FF4FA591B4918C91482B4C93AC
:1002C0000895E4EBF0E09491E0EAF0E0E491F0E0EE
:1002D000EE0FFF1FE458FF4FA591B491EC91E92B6D
:1002E000EC930C943201E4EBF0E09491E0EAF0E05E
:1002F000E491F0E0EE0FFF1FE458FF4FA591B49199
:100300002C91E92FE095E223EC930C9432011F929B
:100310000F920FB60F9211242F933F938F939F93B9
:10032000AF93BF938091010190910201A0910301CD
:10033000B09104013091000123E0230F2D3758F5CF
:100340000196A11DB11D209300018093010190939E
:100350000201A0930301B0930401809105019091E3
:100360000601A0910701B09108010196A11DB11DE0
:100370008093050190930601A0930701B0930801B3
:10038000BF91AF919F918F913F912F910F900FBE91
:100390000F901F90189526E8230F0296A11DB11DFE
:1003A000D2CF789484B5826084BD84B5816084BDE9
:1003B00085B5826085BD85B5816085BD80916E0003
:1003C000816080936E001092810080918100826034
:1003D0008093810080918100816080938100809171
:1003E00080008160809380008091B1008460809360
:1003F000B1008091B00081608093B00080917A005C
:10040000846080937A0080917A00826080937A0081
:1004100080917A00816080937A0080917A00806870
:1004200080937A001092C100C0E08C2F0E9470006F
:10043000CF5FCA30D1F78EE00E9470008FE00E943B
:10044000700080E10E94700081E10E94700082E1F2
:100450000E94700061E08EE00E948F0061E08FE0FA
:100460000E948F0061E080E10E948F0061E081E1E5
:100470000E948F0061E082E10E948F0061E082E1D2
:100480000E948F0065E070E080E090E00E94000133
:1004900060E082E10E948F006FE070E080E090E019
:1004A0000E94000161E082E10E948F006FE070E035
:1004B00080E090E00E94000161E081E10E948F00F5
:1004C00061E08FE00E948F0060E081E10E948F0078
:1004D00089EF0E94730180E00E94610188E00E9420
:1004E000610180EC0E94730189E10E9461018AE14F
:1004F0000E94610181EC0E94730185E40E94610108
:1005000080E00E94610182EC0E94730183E30E94FB
:10051000610185EC0E94730180E00E94610188E224
:100520000E94610181EB0E94730180E90E946101D8
:1005300081E10E94610184EB0E94730182E00E94CC
:10054000610186EB0E94730180E00E94610182E4F8
:100550000E9461018BE30E94610187EB0E9473019D
:1005600087E00E94610180EE0E9473018FE10E948A
:10057000610185E20E94610182E20E9461018BE0DB
:100580000E94610186E00E9461018AE00E9461018F
:100590008EE40E94610186EC0E94610189E30E9461
:1005A000610180E00E94610180E00E94610180E0C1
:1005B0000E94610180E00E94610180E00E9461016F
:1005C00080E00E94610181EE0E9473018FE10E9430
:1005D00061018FE30E9461018FE30E9461018FE05E
:1005E0000E9461018FE10E9461018FE00E94610120
:1005F00086E40E94610189E40E94610181E30E9416
:10060000610185E00E94610189E00E94610183E04F
:100610000E9461018CE10E9461018AE10E946101F6
:1006200080E00E94610181EF0E94730186E30E94D5
:10063000610184E00E94610180E00E9461018CE31D
:100640000E9461018FE00E9461018FE00E946101C0
:1006500084EA0E94610182E00E94610182EF0E94AF
:10066000730188E10E94610183EA0E94610182E1D5
:100670000E94610182E00E94610182E30E946101A7
:1006800082E10E9461018FEF0E94610182E30E947A
:10069000610180E00E94610184EF0E94730180E4A7
:1006A0000E94610180E00E94610188E00E94610176
:1006B00081E90E94610184E00E94610188EF0E944B
:1006C000730181E20E94610184E00E94610186E37E
:1006D0000E94730188E40E9461018AE30E94730111
:1006E00085E50E94610181E10E94730168E770E085
:1006F00080E090E00E94000189E20E947301C0E066
:10070000D0E08AE20E94730180E00E94610180E0F3
:100710000E94610181E00E94610180E40E94610108
:100720008BE20E94730180E00E94610180E00E94E0
:10073000610181E00E94610180EE0E9461018CE212
:100740000E9473018CE20E94730161E080E10E94CB
:100750008F0060E081E10E948F0087E00E946101CC
:1007600080EE0E94610161E081E10E948F0020978C
:0C07700041F20E940000C5CFF894FFCFBA
:00000001FF
